{
  "contractName": "Donation",
  "abi": [
    {
      "anonymous": false,
      "inputs": [
        {
          "indexed": false,
          "internalType": "uint256",
          "name": "id",
          "type": "uint256"
        },
        {
          "indexed": false,
          "internalType": "address",
          "name": "donateur",
          "type": "address"
        },
        {
          "indexed": false,
          "internalType": "uint256",
          "name": "montant",
          "type": "uint256"
        },
        {
          "indexed": false,
          "internalType": "uint256",
          "name": "timestamp",
          "type": "uint256"
        }
      ],
      "name": "DonationCreated",
      "type": "event"
    },
    {
      "constant": true,
      "inputs": [
        {
          "internalType": "address",
          "name": "",
          "type": "address"
        },
        {
          "internalType": "uint256",
          "name": "",
          "type": "uint256"
        }
      ],
      "name": "donateurToDonations",
      "outputs": [
        {
          "internalType": "uint256",
          "name": "",
          "type": "uint256"
        }
      ],
      "payable": false,
      "stateMutability": "view",
      "type": "function"
    },
    {
      "constant": true,
      "inputs": [],
      "name": "donationCount",
      "outputs": [
        {
          "internalType": "uint256",
          "name": "",
          "type": "uint256"
        }
      ],
      "payable": false,
      "stateMutability": "view",
      "type": "function"
    },
    {
      "constant": true,
      "inputs": [
        {
          "internalType": "uint256",
          "name": "",
          "type": "uint256"
        }
      ],
      "name": "donations",
      "outputs": [
        {
          "internalType": "uint256",
          "name": "id",
          "type": "uint256"
        },
        {
          "internalType": "address",
          "name": "donateur",
          "type": "address"
        },
        {
          "internalType": "uint256",
          "name": "montant",
          "type": "uint256"
        },
        {
          "internalType": "uint256",
          "name": "timestamp",
          "type": "uint256"
        }
      ],
      "payable": false,
      "stateMutability": "view",
      "type": "function"
    },
    {
      "constant": false,
      "inputs": [],
      "name": "createDonation",
      "outputs": [],
      "payable": true,
      "stateMutability": "payable",
      "type": "function"
    },
    {
      "constant": true,
      "inputs": [
        {
          "internalType": "uint256",
          "name": "_id",
          "type": "uint256"
        }
      ],
      "name": "getDonation",
      "outputs": [
        {
          "internalType": "uint256",
          "name": "",
          "type": "uint256"
        },
        {
          "internalType": "address",
          "name": "",
          "type": "address"
        },
        {
          "internalType": "uint256",
          "name": "",
          "type": "uint256"
        },
        {
          "internalType": "uint256",
          "name": "",
          "type": "uint256"
        }
      ],
      "payable": false,
      "stateMutability": "view",
      "type": "function"
    },
    {
      "constant": true,
      "inputs": [
        {
          "internalType": "address",
          "name": "_donateur",
          "type": "address"
        }
      ],
      "name": "getDonationsByDonateur",
      "outputs": [
        {
          "internalType": "uint256[]",
          "name": "",
          "type": "uint256[]"
        }
      ],
      "payable": false,
      "stateMutability": "view",
      "type": "function"
    }
  ],
  "bytecode": "0x608060405234801561001057600080fd5b5061044e806100206000396000f3fe6080604052600436106100555760003560e01c806308196a9e1461005a5780632abfab4d146100645780635a0dbc781461008b57806388c656ab146100c4578063ef07a81f14610147578063f8626af81461019f575b600080fd5b6100626101c9565b005b34801561007057600080fd5b506100796102e2565b60408051918252519081900360200190f35b34801561009757600080fd5b50610079600480360360408110156100ae57600080fd5b506001600160a01b0381351690602001356102e8565b3480156100d057600080fd5b506100f7600480360360208110156100e757600080fd5b50356001600160a01b0316610316565b60408051602080825283518183015283519192839290830191858101910280838360005b8381101561013357818101518382015260200161011b565b505050509050019250505060405180910390f35b34801561015357600080fd5b506101716004803603602081101561016a57600080fd5b5035610382565b604080519485526001600160a01b039093166020850152838301919091526060830152519081900360800190f35b3480156101ab57600080fd5b50610171600480360360208110156101c257600080fd5b50356103b4565b600034116102085760405162461bcd60e51b81526004018080602001828103825260348152602001806103e66034913960400191505060405180910390fd5b60028054600190810180835560408051608080820183528382523360208084018281523485870181815242606080890182815260009b8c528b87528a8c2099518a559451898d0180546001600160a01b0319166001600160a01b039092169190911790559151888d015592516003909701969096558388528883528688208a5481549a8b0182559089529783902090980196909655965484519081529687015285830194909452840191909152517f6389d52932f001f805bda3695335e2ce2064320790f711cffd61bf0805131ce79281900390910190a1565b60025481565b6001602052816000526040600020818154811061030157fe5b90600052602060002001600091509150505481565b6001600160a01b03811660009081526001602090815260409182902080548351818402810184019094528084526060939283018282801561037657602002820191906000526020600020905b815481526020019060010190808311610362575b50505050509050919050565b600090815260208190526040902080546001820154600283015460039093015491936001600160a01b03909116929190565b600060208190529081526040902080546001820154600283015460039093015491926001600160a01b03909116918456fe4c65206d6f6e74616e74206465206c6120646f6e6174696f6e20646f697420c3aa74726520737570c3a9726965757220c3a02030a265627a7a72315820ea67ee2ffc941e0d8303ab0c2d5123bdd320f919a686ee427bf8e991c4182e2a64736f6c63430005100032",
  "source": "// SPDX-License-Identifier: MIT\r\npragma solidity ^0.5.0;\r\n\r\ncontract Donation {\r\n    struct DonationStruct {\r\n        uint id;\r\n        address donateur;\r\n        uint montant;\r\n        uint timestamp;\r\n    }\r\n\r\n    event DonationCreated(uint id, address donateur, uint montant, uint timestamp);\r\n\r\n    mapping(uint => DonationStruct) public donations;\r\n    mapping(address => uint[]) public donateurToDonations;\r\n    uint public donationCount;\r\n\r\n    function createDonation() public payable {\r\n        require(msg.value > 0, \"Le montant de la donation doit être supérieur à 0\");\r\n\r\n        donationCount++;\r\n        donations[donationCount] = DonationStruct(donationCount, msg.sender, msg.value, now);\r\n        donateurToDonations[msg.sender].push(donationCount);\r\n\r\n        emit DonationCreated(donationCount, msg.sender, msg.value, now);\r\n    }\r\n\r\n    function getDonation(uint _id) public view returns (uint, address, uint, uint) {\r\n        DonationStruct storage donation = donations[_id];\r\n        return (donation.id, donation.donateur, donation.montant, donation.timestamp);\r\n    }\r\n\r\n    function getDonationsByDonateur(address _donateur) public view returns (uint[] memory) {\r\n        return donateurToDonations[_donateur];\r\n    }\r\n}\r\n",
  "sourcePath": "C:\\Users\\adrie\\GitHub\\Crypto-donation\\contracts\\Donation.sol",
  "compiler": {
    "name": "solc",
    "version": "0.5.16+commit.9c3226ce.Emscripten.clang"
  },
  "schemaVersion": "3.4.16",
  "updatedAt": "2024-07-01T10:15:38.234Z",
  "networkType": "ethereum",
  "devdoc": {
    "methods": {}
  },
  "userdoc": {
    "methods": {}
  }
}